:100000000C9435000C945D000C945D000C945D0024
:100010000C945D000C945D000C945D000C945D00EC
:100020000C945D000C945D000C945D000C945D00DC
:100030000C945D000C945D000C945D000C945D00CC
:100040000C948D010C945D000C94FD010C94D7016F
:100050000C945D000C945D000C945D000C945D00AC
:100060000C945D000C945D00B80211241FBECFEF0C
:10007000D8E0DEBFCDBF11E0A0E0B1E0E4EEF5E0F6
:1000800002C005900D92A432B107D9F721E0A4E295
:10009000B1E001C01D92AA3CB207E1F710E0C5E350
:1000A000D0E004C02197FE010E94E502C433D107CD
:1000B000C9F70E942F020C94F0020C940000CF921A
:1000C000DF92EF92FF920F931F93CF93DF936C0118
:1000D0007A018B01C0E0D0E0CE15DF0589F0D801B0
:1000E0006D918D01D601ED91FC910190F081E02D93
:1000F000C6010995892B11F47E0102C02196ECCF2F
:10010000C701DF91CF911F910F91FF90EF90DF908A
:10011000CF900895089580E090E00895FC01538DFC
:10012000448D252F30E0842F90E0821B930B5417D1
:1001300010F0CF96089501970895FC01918D828D5E
:10014000981761F0828DDF01A80FB11D5D968C912B
:10015000928D9F5F9F73928F90E008958FEF9FEF36
:100160000895FC01918D828D981731F0828DE80FF2
:10017000F11D858D90E008958FEF9FEF0895FC01AC
:10018000918D228D892F90E0805C9F4F821B910979
:100190008F73992708958DE291E00E94BF0021E0BE
:1001A000892B09F420E0822F0895FC01848DDF0162
:1001B000A80FB11DA35ABF4F2C91848D90E00196DA
:1001C0008F739927848FA689B7892C93A089B189C9
:1001D0008C9180648C93938D848D981306C00288D3
:1001E000F389E02D80818F7D80830895EF92FF92C7
:1001F0000F931F93CF93DF93EC0181E0888F9B8D4A
:100200008C8D981305C0E889F989808185FD24C00B
:10021000F62E0B8D10E00F5F1F4F0F731127E02E8E
:100220008C8DE8120CC00FB607FCFACFE889F9896B
:10023000808185FFF5CFCE010E94D500F1CF8B8D57
:10024000FE01E80FF11DE35AFF4FF0820B8FEA89A0
:10025000FB898081806207C0EE89FF896083E8891D
:10026000F98980818064808381E090E0DF91CF9183
:100270001F910F91FF90EF900895CF93DF93EC01C2
:10028000888D8823C9F0EA89FB89808185FD05C0B6
:10029000A889B9898C9186FD0FC00FB607FCF5CFF0
:1002A000808185FFF2CFA889B9898C9185FFEDCF38
:1002B000CE010E94D500E7CFDF91CF91089580E075
:1002C00090E0892B29F00E94CB0081110C94000052
:1002D0000895CF93DF93009779F0FC0101900020FF
:1002E000E9F73197AF01481B590BBC018DE291E052
:1002F0000E945F00EC0102C0C0E0D0E042E050E0AC
:1003000062E171E08DE291E00E945F008C0F9D1F21
:10031000DF91CF9108950E94EB021F920F920FB6CA
:100320000F9211242F933F938F939F93AF93BF937B
:100330008091290190912A01A0912B01B0912C016B
:100340003091280123E0230F2D3720F40196A11DC1
:10035000B11D05C026E8230F0296A11DB11D2093F3
:1003600028018093290190932A01A0932B01B09337
:100370002C018091240190912501A0912601B0913A
:1003800027010196A11DB11D8093240190932501A1
:10039000A0932601B0932701BF91AF919F918F91B8
:1003A0003F912F910F900FBE0F901F9018951F92A5
:1003B0000F920FB60F9211242F933F934F935F9399
:1003C0006F937F938F939F93AF93BF93EF93FF931D
:1003D0008DE291E00E94D500FF91EF91BF91AF9126
:1003E0009F918F917F916F915F914F913F912F914D
:1003F0000F900FBE0F901F9018951F920F920FB67F
:100400000F9211242F938F939F93EF93FF93E0917B
:100410003D01F0913E018081E0914301F091440162
:1004200082FD12C09081809146018F5F8F73209171
:100430004701821751F0E0914601F0E0E35DFE4F85
:10044000958F8093460101C08081FF91EF919F912C
:100450008F912F910F900FBE0F901F901895789449
:1004600084B5826084BD84B5816084BD85B58260B9
:1004700085BD85B5816085BD80916E00816080936A
:100480006E001092810080918100826080938100D3
:1004900080918100816080938100809180008160E3
:1004A000809380008091B10084608093B10080913E
:1004B000B00081608093B00080917A008460809366
:1004C0007A0080917A00826080937A0080917A002D
:1004D000816080937A0080917A00806880937A00AE
:1004E0001092C100E0913D01F0913E0182E08083D5
:1004F000E0913901F0913A011082E0913B01F091D5
:100500003C018FEC808310924501E0914101F09114
:10051000420186E08083E0913F01F09140018081BB
:1005200080618083E0913F01F0914001808188608B
:100530008083E0913F01F091400180818068808359
:10054000E0913F01F091400180818F7D808385E1C2
:1005500091E00E9469018DE291E00E949D00813648
:10056000D1F78DE191E00E9469010E945F01FDCF0A
:10057000EDE2F1E01382128288EE93E0A0E0B0E0B9
:1005800084839583A683B78384E091E091838083FD
:1005900085EC90E09587848784EC90E09787868748
:1005A00080EC90E0918B808B81EC90E0938B828B40
:1005B00082EC90E0958B848B86EC90E0978B868B19
:1005C000118E128E138E148E0895EE0FFF1F05905C
:1005D000F491E02D099481E090E0F8940C94F002FD
:0405E000F894FFCFBD
:1005E40000000000F6005F008E003D01BF009D008A
:1005F400B1000D0A0074657374696E6700737461E9
:04060400727400000C
:00000001FF
